:020000022000DC
:10600000F8730020E5AB02000B730400B9AB02008B
:10601000B9AB0200B9AB0200B9AB0200000000004E
:1060200000000000000000000000000009AD0200B8
:10603000B9AB02000000000075AC0200B9AB020071
:1060400029AF0200E1C2030029AF020029AF02001C
:1060500029AF020029AF020029AF020029AF0200D8
:1060600029AF020029AF020029AF020029AF0200C8
:1060700029AF020029AF020029AF020029AF0200B8
:1060800029AF020029AF020029AF020029AF0200A8
:1060900029AF020029AF020029AF020029AF020098
:1060A00029AF020029AF020029AF020029AF020088
:1060B00029AF020029AF020029AF020029AF020078
:1060C00029AF020029AF020029AF020029AF020068
:1060D00029AF020029AF020029AF020029AF020058
:1060E00029AF020029AF020029AF020029AF020048
:1060F00029AF020029AF020029AF020029AF020038
:1061000053B94AB9002908BF00281CBF4FF0FF311E
:106110004FF0FF3000F00CB8ADF1080C6DE904CE83
:1061200000F008F8DDF804E0DDE9022304B0704770
:10613000704700BF2DE9F04786468C460846089E0A
:10614000154674461946002B40F0C2808542B2FACB
:1061500082F245D94AB1C2F1200300FA02FC2EFABC
:1061600003F3954043EA0C0C94404FEA154EA8B255
:10617000BCFBFEF8230C0EFB18CC08FB00F943EA2D
:106180000C43994528D9EB1808F1FF3704D29945FB
:1061900002D9A8F102072B44A3EB0903A4B2B3FB75
:1061A000FEFC0EFB1C330CFB00F044EA0344A0424F
:1061B00014D92C190CF1FF3304D2A04202D9ACF14E
:1061C00002032C44241A43EA07401EB1D4400023A2
:1061D00034607360BDE8F0874746DDE76346F1E76A
:1061E00092BB431B01214FEA154EAFB2B3FBFEFC3D
:1061F000200C0EFB1C330CFB07F840EA03439845C8
:1062000062D9EB180CF1FF3004D2984502D9ACF1F9
:1062100002002B44A3EB0803A4B2B3FBFEFC0EFB6D
:106220001C330CFB07F744EA0344A7424ED92C1950
:106230000CF1FF3304D2A74202D9ACF102032C4483
:10624000E41B43EA0040C0E7C2F1200320FA03F157
:10625000954090402EFA03F303434FEA154EAFB238
:10626000B1FBFEFC0EFB1C10190C0CFB07F841EAFD
:106270000041884504FA02F422D969180CF1FF3074
:1062800004D2884502D9ACF102002944A1EB0801EF
:106290009BB2B1FBFEFC0EFB1C110CFB07F743EAA3
:1062A00001439F420ED9EB180CF1FF3104D29F42FB
:1062B00002D9ACF102012B44DB1B41EA004192E719
:1062C0006046E3E76146F7E76046A3E76346B7E762
:1062D000834206D916B9002108467BE7C6E900E0EB
:1062E000F9E7B3FA83F78FB9834201D3724508D82F
:1062F000BEEB020460EB030301209C461EB90021A3
:1063000068E73846FAE7C6E9004CF8E7C7F1200C21
:10631000BB4022FA0CF41C432EFA0CF120FA0CF3C9
:10632000B84001434FEA14490EFA07F5B3FBF9F8F8
:106330001FFA84FE09FB18300B0C08FB0EFA43EA27
:1063400000439A4502FA07F240D9E31808F1FF30FA
:1063500004D29A4502D9A8F102002344A3EB0A0310
:1063600089B2B3FBF9F809FB183308FB0EFE41EACA
:1063700003418E452CD9611808F1FF3304D28E45B4
:1063800002D9A8F10203214443EA0040A0FB02988D
:10639000A1EB0E014145CE46434602D306D14D4501
:1063A00004D2B9EB020E68EB04030138002EA6D02C
:1063B000B5EB0E0261EB030101FA0CFC22FA07F3C4
:1063C0004CEA0303F940C6E9003198E74046C5E7C7
:1063D0004346D9E710F8012B11F8013B012A28BFE9
:1063E0009A42F7D0D01A7047034611F8012B03F8F0
:1063F000012B002AF9D17047034613F8012B002A1C
:10640000FBD1181A01387047F7B53E4DD5F85C310D
:10641000996811F0010121D101AA40F6034005F06D
:1064200055FC044600286AD10198C3681B789BB9C3
:10643000BFF35B8FD5F8D430BFF35B8F05F1D40287
:1064400003F00903BFF35B8F52E8001F42E80034FA
:10645000002CF9D1BFF35B8F18F054FE01AA002184
:1064600041F2030005F032FC0446002847D1019BAD
:10647000254EDA68D2F80100D2F8051003C6184696
:1064800018F040FE214601AA41F2010005F01EFC71
:106490000446A0BB0198C3685A7885F870205A88D2
:1064A000A5F872201A7985F87120B3F80720A5F8AD
:1064B0007420B3F80530A5F8763018F023FE214695
:1064C00001AA41F2020005F001FC0446B8B9019F9F
:1064D000FA68531C413218685968344603C40833BB
:1064E00093422646F7D1094820F0CEFF384618F0EF
:1064F00009FE95F87C305B060AD46FF01204204642
:1065000003B0F0BD000000207800002080000020D3
:1065100001AA002142F2030005F0D8FB044600283E
:10652000EDD1019BB64EDA68D2F80100D2F8051021
:1065300003C6184618F0E6FD214601AA42F2020001
:1065400005F0C4FB04460028D9D1019CE368B3F8E8
:10655000012091B249B1D97839B1A5F80421DA788E
:10656000114606F1280024F072FF204618F0CAFDFB
:1065700095F87C6016F0200618D1022140F66D4097
:1065800005F048FB0446002800F0CC8002210C30C6
:1065900024F05CF80123037046702146324640F631
:1065A0006D4005F093FB04460028A8D195F89C3077
:1065B0001F0712D501AA002142F21C0005F086FB3C
:1065C000044600289BD10198C368D3F80120D3F872
:1065D0000530C5E9382318F095FD95F8D8309E06AA
:1065E00024D50DF10201684621F011FA0446002875
:1065F00085D1042142F2240005F00CFB0646002858
:1066000000F0908004210C3024F020F8BDF8003018
:106610000380BDF8023043802246314642F2240016
:1066200005F054FB044600287FF469AF95F8D83094
:106630005C0610D501AA002142F22A0005F046FBB3
:10664000044600287FF45BAF0198C3685B7885F847
:10665000203118F057FD082142F2010005F0DAFA66
:10666000044600285ED008210C3023F0EFFF95F897
:10667000D81011F0400F024640F2022308BF032356
:1066800088074CBF43F02C0043F00C0095F8D9303C
:106690008F0648BF40F0400013F0090F95F8A23074
:1066A00018BF40F4006003F00603CE0748BF40F077
:1066B0001000062B08BF40F4C070002121F073F8D1
:1066C0002146002242F2010005F000FB04460028AA
:1066D0007FF415AF95F87C30B5F80411980624D4F2
:1066E000C9B901AA41F2050005F0F0FA04460028F4
:1066F0007FF405AFB5F80431019C4BB9E368B3F8FA
:106700000120A5F804219A883E48114624F09FFEF6
:10671000204618F0F7FC082140F6014005F07AFA0F
:10672000044638B96FF06804E9E60029F3D16FF048
:106730000404E4E608210C3023F088FF95F8D830F3
:10674000D907024653BF4FF000512BA1D1E90001F8
:106750002D4821F028F82146002240F6014005F09E
:10676000B5FA044600287FF4CAAE014601AA4FF6E6
:10677000014005F0ABFA044620BB019818F0C2FCBA
:10678000214601AA4FF6024005F0A0FA0446C8B916
:106790000198C368B3F80130A5F8C13018F0B2FC15
:1067A00095F8C1305B070DD501AA21464FF603408D
:1067B00005F08CFA30B90198C3685B7885F8C03071
:1067C00018F0A0FC21F097FB044600287FF497AE58
:1067D00007F0E8F9044600287FF491AEEB79002B2E
:1067E0003FF48DAE0821094820F020FF05F022FD7E
:1067F00085E600BFAFF30080908800020080002093
:10680000D80000200801002010880002D4000020D9
:106810002DE9F843D0E90C35D0F82C805C193034E0
:10682000A0450F46164619D81D4DA3FB05011AA316
:10683000D3E90023FFF764FC0346A4EB0800A0FBA8
:10684000050123F07F4414A3D3E90023FFF758FC8C
:1068500020F07F403C603060BDE8F883DFF8409076
:106860000DA3D3E90023A8FB0901FFF749FC044667
:1068700005F1300008A3D3E90023A0FB0901FFF7CD
:106880003FFC24F07F4420F07F403C603060BDE856
:10689000F88300BFAFF300808D49FD1A07000000A8
:1068A00000CA9A3B000000009FED097B0E4B0F4A87
:1068B0000F4983ED007B9FED087B82ED007B9FED10
:1068C000087B0C4B002281ED007B1A600DF0BAB9F9
:1068D000FFFFFFFFFF1F000000000000000000009E
:1068E0001F0000000000000080010020E0170020D1
:1068F00078010020FC2B0020002800F046812DE9C3
:10690000F04FC94C94F86A2012F001058DB040F0A8
:10691000788194F82500FF2300F0030084F82630E6
:1069200015F0C8F894F86A00420727D494F8292093
:1069300094F8353004EB820204EB8303D66AD3F873
:10694000388086B1B84831460EF030FF33785B06A8
:1069500005D506210AF002FA002800F05481B24859
:1069600041460EF023FF337813F00E0F40F09E8067
:10697000236A93B10C200DB0BDE8F08F2A4604F1D4
:106980006B01C0F3C00015F005FAFF2884F826005B
:10699000CCD0284615F0A8F8C8E70CF09DFA81463F
:1069A000002800F054810CF0A3FA8246002800F081
:1069B0004B810FF0E9F90546002800F04A81D0F834
:1069C00088004FF6FF732B8505F11C0B002800F0A3
:1069D000208105F17C0205F178010AF0CBF9B5F8C8
:1069E000763023F4EF6323F0070343F4887343F016
:1069F0000103A5F8763095F8393003F03F0363F0D2
:106A00007F0385F8393095F88E3023F0070385F839
:106A10008E3095F83C3023F00703002785F83C3092
:106A20004FF4C023C5F888312846C5E91277C5F868
:106A30008870A5F88C706F86C5F82E7085F83B704D
:106A40002F65A5F88E71A5F8847111F00FFB85F8FC
:106A50005071C5F854910FF023FC95F8943160F310
:106A6000020385F894310FF021FC95F8943160F31E
:106A7000C50385F8943195F8803167F3410385F8B3
:106A800080310121284610F02DF805F1D40011F0D5
:106A9000A7F8C4E9189AC4F820B0C5E905772F70A3
:106AA000ED6116F0BDF9002840F0AF8094F8243075
:106AB0000121C3F342030DF12B008DF82B300AF0B6
:106AC000F7FA0246002862D098F8011030460EF01E
:106AD0002FFC31235549A360554BB4F86870A0FBD7
:106AE00001010025C01841F107014DA3D3E900239E
:106AF000C4E9055525706560E560FFF701FB20617D
:106B00000BF0E8FC00F109083FB9357805F00F05F6
:106B1000A5F10105B5FA85F56D0994F824002369FE
:106B200065F3000010F0010584F8240036D0414AD6
:106B300009920020106002253F4A404F04930BAE9B
:106B4000019305920321CDE902000694434600908B
:106B5000089607972A460B950BF0BEFB31460CF0C2
:106B600081FAA0B9364905914AF2D8330093CDE9AC
:106B70000300CDE9010007970896069443460122D9
:106B800003210B950BF08CFB2EE00EF021BB236A4A
:106B9000002B3FF4EFAE0EF0D9FAEBE6254A294878
:106BA000049303F247130694029591211360A7FB07
:106BB000000301FB0731214B07931F4B05934FF651
:106BC000FF730992022703930BAE15A3D3E90023A9
:106BD0000B970896FFF794FA4346CDE900503A46E2
:106BE000284603210BF078FB31460CF03BFA0028D5
:106BF000CDD194F86A300120034384F86A3014F050
:106C00003BFF0020B7E61220B5E60EF09FFA032006
:106C1000B1E605F18000C5F88800DAE6AFF3008040
:106C20008D49FD1A07000000342C002000CA9A3B51
:106C30008C49FD1A282C0020AD530300292603009F
:106C4000C94E0300002AE78448460CF04BF90720A0
:106C500091E650460CF052F948460CF043F9F6E73D
:106C600070B590F824308AB0C3F342030D46044651
:106C700001210DF1230016468DF823300AF018FA91
:106C80007178024628460EF053FB1F491F4AA0FBAD
:106C90000131981841F1070119A3D3E90023FFF747
:106CA0002FFA23699842054621D21B1A002201922D
:106CB000174A0293174BA21AA3FB02320221920930
:106CC00000230A4409AE099113490591CDE9033324
:106CD0000321D2B20696009318460BF05DFB3146B5
:106CE0000CF0C0F938B9256100200AB070BDFBD99D
:106CF000C21A0023DBE70C200AB070BDAFF300809E
:106D00008D49FD1A0700000000CA9A3B8C49FD1A04
:106D1000342C002009CB3D8D292603000000000003
:106D20002DE9F04F05468BB08B46012002219A4693
:106D3000144617F05FFF00220221814601200AF06D
:106D400069F839494FF4D072284609F0F3FFC61CA0
:106D5000F6B2364B00953246012100200BF034FB91
:106D600010F0FD0F0CD0324A3249334840F62F0361
:106D70001EF05EFD404080F311884FF0030002DFFB
:106D80002E4BA4FB0348204625A3D3E9002341460C
:106D9000FFF7B6F9089506952B690493284B20F068
:106DA0007F47A7FB0331E01A264B07934FF00702FA
:106DB000254B059302FB07114FF6FE7368EB0101AB
:106DC00003934FF47A720023FFF79AF9CDF800B0DD
:106DD000CDE9017053463246012100200BF060FAE4
:106DE00010F0FD0F0CD0124A1249134840F644032C
:106DF0001EF01EFD404080F311884FF0030002DFBB
:106E0000B9F1000F02D10BB0BDE8F08F01220221D1
:106E100010460BB0BDE8F04F09F0FCBFAFF30080A7
:106E20008D49FD1A07000000E8170020315D0300BE
:106E300094D3040058D40400CCCE040000CA9A3B7A
:106E40008D49FD1AD95C0300E1AF0300000000008A
:106E50002DE9F043C469228D4FF6FF739A428DB03D
:106E600000F088800546204611F082FB95F8283016
:106E7000012B00F00F81022B00F00281002B00F0AB
:106E8000E18094F85071002F40F0FD80E68DB4F859
:106E90003080002E71D1AA8C08F101060023CDE9C3
:106EA0000A33B6B2002A70D094F93930002BC0F200
:106EB00048810023A4F88A3195F82630D90740F19B
:106EC000EF800023A4F88E310DF1270231462046D1
:106ED00011F008F9743000F04681B4F888312BB114
:106EE000B34240F20D819B1BA4F88831B4F8843181
:106EF0002BB1B34240F2FB809B1BA4F88431258E5A
:106F000017B9A84500F0EA800135ADB294F8D13048
:106F100013F001065AD1DDE90A130A46002B40F0AE
:106F2000ED80002900F0DC801E461846228DE469C1
:106F30000694CDE903570332A74D0290CDE9001620
:106F4000D2B20121002005950BF026FA10F0FD0FBA
:106F500010D00CF0B1F884420CD0A04AA049A1484E
:106F600040F215531EF064FC404080F311884FF04E
:106F7000030002DF0DB0BDE8F083AA8C4644002375
:106F8000CDE90A33B6B2002A8ED195F82630DA0759
:106F900097D4B4F88A31002B00F08280B34240F2DB
:106FA000FA809B1BA4F88A31B4F88E31002B8BD069
:106FB0009E4280F0DE809B1B9BB20022062BA4F831
:106FC0008E31228600F2AC8001277DE794F93920CA
:106FD0006FF30003002A84F8D13077DB94F8760051
:106FE000C0F3C00100F0070015F080FDB4F86E207A
:106FF000B4F86C30134403F2D51303447A4A7B4847
:107000000721E3FB0021104671A3D3E90023FFF71A
:1070100077F8DDE90A1320F07F422069226190426F
:1070200035BF161A801A002000260A46002B7FF46E
:107030007DAF56EA010C7FF479AF002850D0194695
:107040001E4673E794F88E3003F01803182B7FF474
:1070500018AFA18DB4F886218B1D9A42C4BF931F2F
:107060005B1AB4F88211CCBF9BB21346994200F070
:107070008C80A4F88231A4F88431A4F8882100E738
:107080003D2784F85071394620460DB0BDE8F043E5
:107090000FF0E8B90023A4F88831A4F88431F0E6B1
:1070A000B4F88E31002B83D1628DB4F88C3140F26C
:1070B000E24101FB02F242F2107101FB0323013BAA
:1070C000B3FBF2F39BB2A4F88E316FE794F877002C
:1070D000012100F0070015F00BFD87E73D4615E79D
:1070E000002D4BD000261146304633461EE70023C4
:1070F000A4F88431204611F095F800E7304615E7F2
:107100000BF042FF014600283BD00023A4F8883151
:10711000238DC3801B23037100680BF0FFFEE5E69F
:1071200094F939309342BFF6CFAEB8F1000F7FF437
:107130004BAFD4F878315A08DB0743D4C4F8782130
:10714000C2E628460AAA0BA904F1D409FFF760FB9E
:10715000484610F087FD18B3484610F083FD18B379
:1071600000232386A5E69DF8271020460FF07AF924
:1071700000E7082120460FF075F9FBE6002FB1D19A
:10718000F8E60123A4F88831B0E6B4F888110029A4
:107190007FF477AE6FE73E2120460FF063F9E9E612
:1071A000FF200FF01FF9D7E70246D4E91E0109F0CE
:1071B000F9FD0028D4D194F83C30580744BFA38D82
:1071C000238676E642F00042C4F87821FCE600BF50
:1071D0008D49FD1A07000000995C030094D3040058
:1071E000BCD40400CCCE04008C49FD1A00CA9A3BE2
:1071F0002DE9F04F87B0CDE90423BDF84420037892
:107200000292BDF84820BDF84080BDF84C50468E33
:10721000B0F82E90B0F814B1019104460392002BFF
:1072200000F08E80013EB6B2A368D4F80C71721BD8
:1072300092B2002B009209DAE168626823F0004301
:1072400091422CBF7F18BF18A360FF1A009A638D6C
:1072500013FB02F39BB2B3FBF8F218FB02F080B20F
:1072600083421FFA82FA5AD2C01A40F2E2425E49C1
:1072700002FB00F0A0FB010159A3D3E90023FEF7B4
:107280003FFF20F07F400744D94494F839304D4403
:10729000AD1B554440F2E246DB09E58506FB08F5E7
:1072A00052D1524A5249534840F6BA031EF0C0FA2E
:1072B000404080F311884FF0030002DF0026A9460A
:1072C000029BA385039BA4F88C3129462046A4F891
:1072D0002A8010F043FF484BA18D2B44881DB3FB3F
:1072E000F5F39AB29042A4F8862102D2521A063AD5
:1072F00092B2019BA4F8822113B10023A4F88E312D
:107300003B464A4631462046FFF70AFD94F8803155
:1073100043F0010384F8803107B0BDE8F08F08FB2B
:107320001231314840F2E24389B203FB01F1A1FB83
:1073300000012BA3D3E90023FEF7E2FE3F1AA3E7E7
:107340004E445E44B6B26FE7226C0099A36CDFF83E
:1073500098B002FB1133A36415F0B2FD814694F896
:107360007401C0F3420015F0ADFD049B814406FB9F
:1073700003F305FB09F9236509F574291F4B09F28D
:107380003F29A3FB09394FEA994303FB0AF0236421
:10739000A5EB0309A36C6A080344963A934228BFFD
:1073A0001346C4E911230023C4F87C31A0FB0B0170
:1073B0000BA3D3E90023FEF7A3FE114B059A3F1A56
:1073C000A3FB0230800A06FB00F005A3D3E90023EB
:1073D000A0FB0B01FEF794FE20F07F4670E700BF94
:1073E0008D49FD1A0700000000CA9A3B94D304009F
:1073F0004CCF0400CCCE04007FC3C90183DE1B4305
:107400005917B7D1000000002DE9F04F0B6891F833
:107410001180D3F80090037F176895B00446C3F33A
:107420008013D0F81E008DF83F30B8F1FF0F638C49
:1074300012900E461546ADF84C300DF1480A49D170
:107440009AE803001090ADF844102346E28D53F8FB
:107450002EBB9B78AB722A81D4F82A306B60D4F8AB
:107460003A30AB6105F1180094F83E300371052104
:1074700009F01EFE6B7F00F03F0060F305036B77A1
:1074800094F83F30C3F30402AA77A28EEA81012860
:1074900003F01F0392B205D91B3303F01F030B2B1C
:1074A00000D81ABB0022C9F8142095F8203062F3E6
:1074B000000385F82030E5680126584621462671EC
:1074C0000BF022FD28682E7129460BF027FD15B020
:1074D000BDE8F08F10AA0DF13F01404614F078F896
:1074E0009DF83F3002338DF83F30AEE7336800211E
:1074F0005960E38EEA892B8240F2E24303FB02F2F9
:107500000B92628E0D92384610F03CFE94F83F20AC
:1075100097F87411520962F3430187F8741115F05A
:10752000CFFC0C9097F87401C0F3420015F0CAFC30
:107530000C9A0B99104401FB00F0B94A00F5742035
:1075400000F23F20A2FB00204A08800C963A6862B5
:10755000AA6294F8312040F2E24302FB03F3AB63EA
:10756000238FA7F88C31384610F0F8FD0B99AD4BFE
:10757000AD4AC7F890210B44B3FBF1F39AB2A7F8D8
:107580008621298A881D824204DDC1F57F41FA31B6
:107590000A4492B2A7F882216B68C7F87831234673
:1075A00013F81C2FC2F340120C92DA0700F113817A
:1075B0004FF48073A38399F8260014F0FFFC04F1C4
:1075C0002B03002800F0EB80626AC4F82B20228D88
:1075D0009A80B8F1FF0F00F0E680BAF804301298F4
:1075E000A4F82930C4F825009DF83F30A3771098FF
:1075F000BDF84430C4F81F00A4F82330EB8963863B
:107600002B8AA386B7F88C31E38697F87431C3F3DD
:10761000420384F8383038460EF0C2FBA881E0807F
:107620002146584674680BF06FFCAB89E3801C233D
:1076300023710C9BD4F80080002B40F0BA800C9B87
:107640002377214640460BF069FC95F85B00B5F8BE
:107650005080B5F85240012100F0070015F048FABB
:10766000444404F2D514DFF8CC81044482466F48C8
:107670000721E4FB080131230024BB607C6066A382
:10768000D3E90023FC60FEF73BFD20F07F4038612A
:107690000B9B6D6A0D995D1BF36840F2E24202FBA1
:1076A000013303F2B241A1EB0A0A22460221012072
:1076B00009F0B0FB48460EF035F80246AAFB080177
:1076C000924655A3D3E90023FEF71AFDCDF80490A6
:1076D000B3685749009120F07F480AF102023A3B13
:1076E000D2B22046434401210AF0B0FE01287FD0E7
:1076F00099F82430DB0766D438460EF051FB4D4B29
:10770000A5FB03A9044644A3D3E9002350464946F8
:10771000FEF7F6FC484BB668484A079220F07F45D2
:10772000A5FB0331BAEB0300454B059340F2D1139F
:10773000069708933B694FF0000BCDE903B34FF078
:10774000070303FB051169EB01014FF47A72002373
:10775000FEF7D6FC03343A3EE4B2CDE90150CDF851
:10776000008033462246012158460AF099FD10F068
:10777000FD0F0CD0334A344934484FF4E9731EF0FE
:1077800057F8404080F311884FF0030002DF0122D8
:107790000221104609F03EFB15B0BDE8F08FC4F899
:1077A0002B00988015E70022C4F82520A4F8292092
:1077B0001AE76B7F43F040036B77281D13F012FD2F
:1077C0000123E8833CE70023012200931846114679
:1077D0000AF0FAFD90E71B4A1D491C48F8231EF0E9
:1077E00027F8404080F311884FF0030002DFDFE606
:1077F0000BF062FC81453FF47BAF124A15491348F8
:1078000040F279231EF014F8404080F311884FF0C5
:10781000030002DF6CE700BF8D49FD1A070000007E
:1078200083DE1B437FC3C901404B4C008C49FD1ACA
:10783000A5AF030000CA9A3B8D49FD1A75AF03003E
:10784000E1AF030044D9040058D40400CCCE0400B6
:1078500068D10400A0D9040010B5334C334900238B
:1078600004F1FF3C14F83320072A02EB820E05D8FE
:1078700011F83E206FF3451201F83E201CF833202A
:107880006FF300020CF833200133082BEAD1284AA9
:10789000284C002313700A7863F300020A7091F8F1
:1078A000282063F3000281F8282091F8502063F328
:1078B000000281F8502091F8782063F3000281F8EB
:1078C000782091F8A02063F3000281F8A02091F8BD
:1078D000C82063F3000281F8C82091F8F02063F318
:1078E000000281F8F02091F8182163F3000281F87A
:1078F0001821114A9FED0A7B1370104B83ED007B1A
:107900000F4B236028B1BDE810400E490E4823F00C
:1079100065BEBDE810400C4823F06EBEAFF300809A
:10792000FFFFFFFFFFFFFFFFDD3200209C31002043
:107930008B450020AC3000208A450020B81900207B
:10794000A0BB0D00D5BC030088190020000000007A
:107950002DE9F04F8FB00DF137010446DFF8E0A0BC
:10796000DFF8E0800DF136000BF056FB9DF8363065
:107970009DF837B00B930AF0ADFDDAF80060A6FB76
:10798000085629A3D3E9002300278146314628461B
:10799000FEF7B6FBCDE90777069420F07F44DAF8CE
:1079A0000400234B0593A0FB08011FA3D3E9002388
:1079B000FEF7A6FB1F4B20F07F40A4FB03310722FC
:1079C00002FB0411CDE90370E81A66EB01014FF4E4
:1079D0007A720023FEF794FB0097CDE901404B46F5
:1079E0000B985A4603210AF05BFC10F0FD0404D00A
:1079F0006FF08B000FB0BDE8F08F0F480F4A0023E7
:107A00001BF00CFF20B9DAF80C000FB0BDE8F08FC6
:107A10009DF837209DF836000094234603210AF094
:107A2000D3FC6FF07300E5E78D49FD1A07000000F5
:107A300069C203008D49FD1A50330020447B0B00BE
:107A40006833002000CA9A3B38B50F4D04460AF04F
:107A500041FDA9680AF040FD696803460B48B3FB85
:107A6000F4F4A1FB00011C4405A3D3E90023FEF7B5
:107A700047FB20F07F40844294BF0020012038BDA6
:107A80008D49FD1A070000006833002000CA9A3BA8
:107A9000F0B5C468636883B00546002B63D116F067
:107AA00035FC002016F058FC0021084616F046FC74
:107AB00000222521082016F085FC454B019301A8E2
:107AC00016F068FC434940F25B6016F00DFD237A26
:107AD000C3F3420262F306132046237215F010FC32
:107AE00014F040FB58BB637A9B071FD127682E68B0
:107AF000384614F099FF06446A6806F1090101202E
:107B000016F03AFE16F0F8FE20460DF017FE811C26
:107B10003246C9B2384614F095FF054670BB204680
:107B200014F02AFF88B9002003B0F0BD012013F043
:107B300097FF4178821C007816F0BEFDD6E7607A88
:107B400010F0030018BF0120F1E7234A234924481D
:107B500040F22C431DF06CFE404080F311884FF042
:107B6000030002DFDFE793F820309A0797D01D4823
:107B7000214616F089FB16F071FCD4E7164A1A4923
:107B8000174840F214431DF053FE184B0721A5FB84
:107B9000030301FB05310CA3D3E90023FEF7B0FA80
:107BA0001349024613481DF043FE404080F31188FC
:107BB0004FF0030002DF1048214616F065FB16F077
:107BC0004DFC6FF08B00AFE700CA9A3B000000004D
:107BD000D6BE898E5555550074DD040038D004009A
:107BE000CCCE0400CDCB03004CCF04008D49FD1A50
:107BF00024DE0400F8DD0400D1CE03000000000004
:107C00002DE9F041C468A2894FF6FF739A4282B011
:107C100000F0C780054615F09BFE2B89628AE08A3A
:107C20001A4492B21044637FA28280B2411CE18266
:107C30005E064FF00001618204F1180100F18C80B2
:107C400003F03F000B46A17F009004F11F0013F0EA
:107C500081FA0646D4E90B231344D4E90D0200212E
:107C60000244E1626163A16AA26394F872208B42CC
:107C700028BF0B4612F00402236377D016F046FBB0
:107C8000002016F069FB201D16F084FB2389A17AE1
:107C900040F25B6043EA014116F026FC304614F0E6
:107CA000E3FE2146584816F0EFFA962016F058FDEC
:107CB00094F85A2094F85B00C2F3C003002102F04C
:107CC000070200F0070016F075FC204615F0A2FE32
:107CD00027682E68384614F0A7FE06446A6806F145
:107CE0000901002016F048FD804616F0D9FD00205D
:107CF00016F0F0FD236B94F85B0003F13002A36BE8
:107D000000F00700012103EB420516F099FB454402
:107D1000054494F85B0000F00700022824D00428F2
:107D20000CBF4FF4BC73282301211D4416F08AFBBD
:107D3000284416F0A7FDA18903313246C9B238465E
:107D400014F080FE054698BB204614F015FED0B90D
:107D5000002002B0BDE8F0810A4603F03F03E18B4A
:107D600013F044FA064675E71823DDE7D4E9170156
:107D700009F018F8002881D194F8723043F0040318
:107D800084F872307AE7214A2149224840F255139B
:107D90001DF04EFD404080F311884FF0030002DFDC
:107DA000D6E71D48214616F06FFA16F057FBCFE7CD
:107DB000164A1A49174840F24B131DF039FD184B6B
:107DC0000721A5FB030301FB05310DA3D3E9002324
:107DD000FEF796F91349024613481DF029FD40406D
:107DE00080F311884FF0030002DF1048214616F09F
:107DF0004BFA16F033FB6FF08B00AAE7AFF300806D
:107E000000CA9A3B000000006DDC03009CDE040009
:107E100038D00400CCCE0400CDCB03004CCF0400FE
:107E20008D49FD1AF0DE0400F8DD0400A9CB030043
:107E30002DE9F0472DED028B9FED498B4A4E84B022
:107E400004464FF02003EFF3118783F31288BFF34A
:107E50006F8FD4F8C8508DB9022104F1E00023F0EF
:107E600006FB002843D100238DED008B029304F123
:107E7000D00239463D481CF0AFF9E2E7D4F8CC20F7
:107E80002B68C4F8C830954208BFC4F8CC30D4F889
:107E9000E03043F00203C4F8E030EB6823F0040361
:107EA00043F00103EB606B6887F31188BFF36F8FBA
:107EB000284698474FF02003EFF3118983F3128887
:107EC000BFF36F8FEB68990723F0010219D4EA60C2
:107ED000D4F8E03023F00203C4F8E03089F31188CD
:107EE000BFF36F8FDB05ACD41CF056F8A9E704F1A3
:107EF000D80500220121284623F0BFFC0028F8D134
:107F0000B1E7306823F00303EB600028E0D00027DE
:107F1000D0F80080BA460028DAD04268954201467F
:107F20000BD1016897B972683160824200D17160EB
:107F300040F808AB1BF04CFC3946B8F1000F0BD0F1
:107F4000D8F8002040460F469046E4E73960726852
:107F5000824208BF7760EBE74246F3E7AFF3008069
:107F6000FFFFFFFFFFFFFFFF38440020A145002077
:107F700001481BF02FBD00BF9802002001481BF0F4
:107F800029BD00BF8802002007B523F0B3FC4FF4E1
:107F90007A72A0FB020302FB0131C00B074A40EAE0
:107FA0004140106000234FF400420548CDE9002312
:107FB0001CF0F0FA002003B05DF804FB281E00203E
:107FC000100C0020014B187800F042BAA0440020A9
:107FD000044B1A78824202D01870FFF7F3BF0020DA
:107FE000704700BFA044002008B523F083FC4FF485
:107FF0007A72A0FB020302FB0131084AC30B12682C
:1080000043EA41439B1A47F23052934204DDBDE8F4
:1080100008400120FFF7DCBF08BD00BF281E00207C
:1080200008B523F067FC4FF47A72A0FB020302FB51
:108030000131C00B044A40EA41401060BDE80840ED
:108040000020FFF7C5BF00BF281E0020014B187895
:10805000704700BFA0440020F8B5044610B90025C1
:108060002846F8BD0378002BF9D00F4E0F4FBE42C3
:108070000FD30D4EBE42F2D2306823F04BF830B130
:10808000356821462868FEF7A5F90028E8D00436AF
:10809000F0E7306823F03EF818B135682B68A3424A
:1080A000DED00436E3E700BFECFA0400F8FA04007F
:1080B00070B5194C194D8CB00022002303A920463D
:1080C0001BF042FA08B10CB070BD2B68059E5868D1
:1080D000DDE903121CF033FE0028EDDBFF238DF8F1
:1080E0001830B6FA86F35B0907908DF8203023F03C
:1080F00001FC4FF47A72A0FB020302FB0131C00BBA
:1081000040EA4140C90B8DE8030006ABCDE90A0106
:108110000FCB00F0B7F9CFE7480D0020C41E0020B8
:108120001FB50A4C2468A46884420DD183F0010372
:10813000CDE90112039306480022002301A91BF098
:10814000ADF904481BF046FC04B010BDC41E00206D
:10815000480D0020B41E00201FB50023CDE90233D6
:10816000044B8DF80C0001A801931CF00FFE05B024
:108170005DF804FB84C60400044B1A68044B9A4261
:1081800014BF6FF012000020704700BFC41E002013
:1081900070C6040038B5044628B3144D2B688342DA
:1081A0001FD02BB1986818B183685B6803B19847FA
:1081B0000F49104B8C4214BFED21002122220020D8
:1081C0001CF0D7FD00280DDBA0682C6048B1836847
:1081D00009491B6898472B68986883689B6803B1B6
:1081E0009847002038BD6FF01200FBE7C41E002046
:1081F00070C604002C1E00202181020038B50546FF
:1082000048B90648FFF7C6FF041E02DB2846FFF701
:10821000A3FF204638BD6FF01504FAE770C60400CE
:10822000F7B50C4615460D4901AA1E461DF02EFE57
:1082300068B1019B6BB9012C0DD1094F224639461B
:108240003046A847002802DD3878FFF7D7FF03B093
:10825000F0BD0020FBE76FF01500F8E7CCE3040069
:10826000580B00200148FFF795BF00BF70C60400FF
:1082700008B50749074823F06DF9074A002342F87B
:10828000043B0133222BFAD1BDE80840FFF7EABFD7
:10829000B1800200B41E00202C1E0020F8B50F4D46
:1082A0000F4E761B07460C4605EBC105C6F3C70605
:1082B000A64201DC00200CE02A683B689A4209D102
:1082C0003C716B6838461B68984718B1431E012BF8
:1082D000F0D9F8BD01340835EAE700BF54EB0400DB
:1082E0007CEB040000B58BB0064B074A282168469A
:1082F0001CF028FA05490122684601F0B7FF0BB0CF
:108300005DF804FB14E404001EE40400A144002012
:108310002DE9F8434768044600254FF001087B68C3
:10832000AB420DD82149224823F058F9A3681B68B5
:108330000BB120469847398939BB0020BDE8F88346
:108340003A6802EBC50352F835001979DB88D0F89A
:1083500010C0D0F80890DCF80060DA0754BF43F48E
:10836000B01383F4D01323F4801208FA01FEDB0764
:108370004CBF46EA0E0626EA0E06CCF80060D9F895
:108380000030984770B90135C9E740F2E7304FF443
:108390007A72002300EBC1300021FDF7B1FE1BF023
:1083A0007DFECAE76FF00400C8E700BFE582020067
:1083B000700F002008B5074B5A784AB901221A708D
:1083C0000548002200231BF06DFB04481CF0F4FC60
:1083D000002008BDA1440020700F00203CC2040012
:1083E00008B54FF4F012002302481BF08FFB00EA9F
:1083F000E07008BD700F0020F7B50C461646114915
:1084000001AA1F461DF042FDB0B1019BA3B9012C8A
:1084100015D10D4D224629463846B047002806DBC7
:108420002B780A486C7023B11CF0C6FC002003B006
:10843000F0BD1CF0DDFCF9E76FF00100F7E76FF02D
:108440001500F4E714E40400A14400203CC2040039
:108450001FB50023CDE90233044B8DF80C0001A8B1
:1084600001931CF093FC05B05DF804FBA8C6040062
:108470000268034B9A420CBF08300020704700BFCF
:10848000A8C6040084B030B589B00CAC84E80F00F5
:10849000002301930CAD084B00930FCD02AC0FC429
:1084A00095E8030084E8030068461CF06FFC09B0FF
:1084B000BDE8304004B07047ACC604000268034B0E
:1084C0009A420CBF08300020704700BFACC60400C1
:1084D0001FB50023CDE90233044B8DF80C0001A831
:1084E00001931CF053FC05B05DF804FBB4C6040016
:1084F00082B038B504A981E80C00054611481AF08D
:1085000089FD0446A0B16B68012B0CD0022B05D06D
:10851000A3B9BDE8384002B01CF099BC1CF09EFC29
:1085200000282046F5DCBDE8384002B01CF088BCCD
:108530006FF00400BDE8384002B070476FF085006E
:10854000F8E700BF14E4040082B010B502A981E886
:108550000C0004460B481AF05DFD78B16368022BED
:1085600004D00020BDE8104002B070471CF076FC3B
:108570000028CCBF002001206060F2E76FF004000B
:10858000F0E700BF14E404001FB50023CDE9023377
:10859000044B8DF80C0001A801931CF0F7FB05B00B
:1085A0005DF804FBF4C604000268034B9A420CBF5A
:1085B00008300020704700BFF4C6040008B500F082
:1085C00057FBBDE80840014922F0F1BFA802002096
:1085D00007B5084822F09EFD48B14FF4F012002381
:1085E000CDE900230448002200231BF0D3FF03B091
:1085F0005DF804FB78C20400480C002008B5FFF7C2
:1086000037FF10B96FF0850008BDFFF71FFD38B1C7
:108610000138C0B20128F5D8034823F0B2F901E0CF
:10862000FFF7D6FF0020EFE7480C002037B5104CCD
:10863000A5682D21EB6820469847B8B92D212B69F4
:108640006A462046984788B90A4C009823788342A6
:1086500004D0C0B22070FFF797FF38B901F0D8FD01
:108660002378984202D0184601F0D8FD03B030BDFF
:1086700078C20400A344002008B5054822F04AFD52
:1086800018B1FFF7A5FF002008BD6FF01200FBE74F
:1086900078C204001FB50023CDE90233044B8DF8E6
:1086A0000C0001A801931CF071FB05B05DF804FB00
:1086B000FCC6040008B5BDF808101944012908DCFF
:1086C0003BB1054B127805481A701BF083F9012065
:1086D00008BD6FF00600FBE7A4440020F80200206C
:1086E000014B1878FFF78ABDA44400201FB5102461
:1086F0000294044C0194BDF81840009421F002F853
:1087000004B010BDB944002007B5064B00930649DC
:10871000064805234FF43E721BF062F9002003B0B7
:108720005DF804FB00C70400A8450020A00F00204E
:1087300070B50F4D0F4E8AB00022002369462846BF
:108740001AF002FF044608B10AB070BD2146182293
:1087500004A823F094FA10230DEB0301204605969C
:10876000CDF818D0ADF81C3007F088F8E4E700BF6A
:10877000780D00201CC704001FB50E490E4840F6B6
:10878000CD4200231AF08AFE044670B110F10B0F9F
:1087900008D100220023694607481AF0D5FEFFF7EA
:1087A000EBFF0446204604B010BD0449044822F003
:1087B000FEFEF7E7B9440020780D0020B802002043
:1087C000A00F002038B5037823B1032B11D06FF030
:1087D000850038BD4278094D02F00701D408012216
:1087E0008A4081782B5DD2B229B113432B55FFF714
:1087F000C3FF0020EDE723EA0203F7E7B9440020B6
:10880000014B1970704700BFCC440020014B186029
:1088100000207047C81E0020084A094B12781B78B8
:10882000002062F30700074A12785B0062F30F2012
:10883000DBB282B063F3174002B07047C944002036
:10884000CD440020CA44002013B50C4B1C6894B1E1
:10885000FFF7E2FF8DF80400C0F30723C0F30740E1
:108860008DF805308DF8060001990548234602B0C1
:10887000BDE81040184702B010BD00BFC81E002060
:10888000F8FA040010B5002003F0E6FC044610B925
:10889000024801F07BFD204610BD00BF0803002008
:1088A00010B5084804F0ECFF074805F067F9074BDE
:1088B000074800241C70074B01221A701BF08AF82D
:1088C000204610BD4003002030030020CB44002090
:1088D00020030020C94400200C4B07B5187030B1AC
:1088E0000B481BF077F8002003B05DF804FB019003
:1088F0000849012001AA04F099FE019810B1132142
:108900001FF05AFD04F01AFAEDE700BFCA44002038
:10891000600300206D4F04000B4BB1FA81F010B5DD
:1089200040090C461870FFF7B5FE3C2C0AD1074BE6
:108930001B783BB1064B074801221A70BDE8104076
:108940001BF048B810BD00BFCD440020CA44002031
:10895000CB4400206003002070B503788AB0044641
:108960000E4607AD032B20D8DFE803F002191B1DCC
:1089700011492846FDF738FD059563780493A378DF
:108980000393E37802932379019363790093A379A6
:108990000A4A1E2130461BF0D5FE0AB070BD0849B8
:1089A000E7E70849E5E70849E3E7084A0A212846D6
:1089B0001BF0C8FEE0E700BF45E504006EE50400DB
:1089C0004CE5040053E504005DE5040067E50400A0
:1089D00010B588B01FF080FD6946FFF7BDFF002489
:1089E000074B20461C70FFF755FE064B1B7823B142
:1089F000054B06481C701AF0EDFF08B010BD00BF13
:108A0000CD440020CA440020CB4400206003002055
:108A100070B5204E204B3068B2881C781F49B3795E
:108A20008AB003AD0390ADF8102000202A46AB7148
:108A300007F0EAFF31460722284623F0B9FA184B1F
:108A40000646D0B1ACB903202246214601241C7051
:108A50000023CDE90602CDE90815ADF814308DF8F4
:108A6000163000931A46194605A804F035F90AB0E5
:108A700070BD1320A022F021E8E70A4D18700FCD39
:108A800005AC0FC42B6823600749009633460322C8
:108A9000EAE700BF3BE70400CB440020AD8A0200B8
:108AA000CC44002040C50400CCC7040038B50722E0
:108AB0000C460649054623F07BFA28B12B68236053
:108AC000AB88A380AB79A37138BD00BF3BE704003E
:108AD00000487047F8FA040073B5194C194EB442B7
:108AE000254602D36FF0120008E02B689B6804341F
:108AF00033B9154C2368AB4211D1002002B070BDD0
:108B00009847C0F307238DF804008DF80530C0F3B3
:108B10000743C0B28DF806300028E0D0E9E723B162
:108B20001B685B680BB1002098472B6825605B6869
:108B3000002BE2D0012002B0BDE87040184700BF12
:108B4000F8FA0400FCFA0400CC1E002007B5094B1B
:108B500001911B68834207D19DF8063033B903B0F9
:108B60005DF804EBFFF7B8BFFFF7B6FF002003B0D6
:108B70005DF804FBCC1E002070B5094C094D0A4E6F
:108B8000AC42234603D3BDE87040FFF7A5BF1B6886
:108B9000DB680434002BF3D030469847F0E700BF81
:108BA000F8FA0400FCFA04004D8B0200054B1B6828
:108BB00023B11B6813B11B6803B118476FF0120093
:108BC000704700BFCC1E002008B5044801F048F8EB
:108BD000002818BF6FF0150008BD00BF098C020007
:108BE000084B1B780B2B4FF001000AD8984010F46B
:108BF000CD6F05D110F4016F0CBF0120002070472C
:108C000002207047E40B00200A2808B5024613D062
:108C10000A4B0B491870FFF7E3FF02280AD10B78C3
:108C2000032A08BF43F001030B70BDE80840054864
:108C30001AF0D0BE0023F7E708BD00BFE40B002008
:108C4000CE4400207003002007B5064B0093064970
:108C500006480A234FF440721AF0C2FE002003B007
:108C60005DF804FBE8C70400A0480020881000203D
:108C7000004870478810002010B5094C0A44914202
:108C800000D110BD11F8013B584003090001E35C1D
:108C9000C0B2434018091B01205CDBB25840EEE72C
:108CA000B8E50400014B1B68184700BF8003002093
:108CB00030B585B004460D4610220021684622F0EA
:108CC000DEFF02238DF802302A46044B0193214631
:108CD00068461BF0C9FD05B030BD00BFA58C020081
:108CE00080B505460E46174698461BF00BFA03461C
:108CF00023F0AEF9DFF81890044649F800304246F8
:108D000030463946A84754F8090001F083FF00BFF8
:108D1000080000002DE9F047058B0446280790461F
:108D200011D4022905F0070540F0CD8020461CF043
:108D300055FC78B10138218B042811D8DFE800F008
:108D4000C3106D85950001290CBF45F0100545F055
:108D50002005258388F31188BFF36F8FBDE8F08766
:108D600001F0070AAA4500F0A6800027B9463E4652
:108D7000A368002B00F0BD8041F00801218388F337
:108D80001188BFF36F8FA168002900F0BB800D68C8
:108D9000002900F0B780D1F80480334652462046BF
:108DA000C047002D76D02B6829461D46F0E701F01C
:108DB00007035A1F012A1BD8002221F00701062BA6
:108DC000276889B2C4E9002209D13B4603E0628BDF
:108DD000013262831B68002BF9D141F0020121832B
:108DE00020461CF0FBFB00287BD041F0200177E0FF
:108DF000042B0AD121F0070189B2218320461CF0FF
:108E0000EDFB10B141F020012183218B01F0070A15
:108E1000AA4550D00027B946AAE7236921F00701E7
:108E200041F00601062DD3F8009021832DD1B9F130
:108E3000000F40D041F00801218388F31188BFF36F
:108E40006F8F3A492046C84729E021F0070123697E
:108E500041F0040189B2042DD3F804902183E6D0B7
:108E600000273E464FF0040A82E721F007012369FC
:108E700041F0050189B2052DD3F808902183D6D0A1
:108E800000273E464FF0050A72E700273E464FF0A6
:108E9000060A6DE72B4687E7B9F1000FD1D14FF0F5
:108EA0002003EFF3118883F31288BFF36F8F238BB6
:108EB00023F008032383258BEA062ED525F0100323
:108EC000238305F007056669218B002EBFF66FAF7F
:108ED00000232768C4E9003321F0070141F00101B4
:108EE0002183218B01F0070AAA454FF000097FF486
:108EF0003FAF002F9BD041F00801218388F31188F8
:108F0000BFF36F8F002FC7D03D68394633465246B6
:108F100020461CF08FFB2F46F4E7AB067FF51AAF17
:108F200025F02003238305F00705FFE661560400C2
:108F300008B504464FF02002EFF3118382F3128844
:108F4000BFF36F8F18F042F9204602F0FDF8034896
:108F50001CF051F901F0CEFFFCE700BFC8E50400AA
:108F600018F05EB92DE9F7430F4606460821C06A9E
:108F7000DFF850901CF0F7FC3C68241A80463C60F7
:108F800004EA0905AC4203D8002003B0BDE8F08331
:108F900008236A46214630461CF058FC0028F4D1CC
:108FA000694630461CF0E9FC40B1BDF80230BDF81E
:108FB00004203C6005EA090513441D44A4EB0804A1
:108FC000E0E700BF0000FFFF2DE9F047044688B04E
:108FD00000F11407384622F07CF9A06A8368DB6848
:108FE0009847E06228B96FF01505284608B0BDE83B
:108FF000F087A06A8368DB6898470368013B1F2BF2
:10900000F1D8A06A216805AA21F0CBFC0028EAD19A
:10901000A589002DE7D0069BB5FBF3F203FB1255A3
:10902000002DE0D1E389012BDDD9E36A009593F8A7
:1090300004904FF0FF334FF0FF3238461AF0DEFA5B
:10904000E06A08211CF08FFCA8460646E3891FFA57
:1090500085FA534508D8E389434523D138461AF0A9
:1090600047FB6FF02C05C0E7A1892B04891B13FA7D
:1090700081F14A460823204600911CF035FC78B166
:10908000694620461CF0F0FB08F10108009908230E
:109090004A4620461FFA88F81CF026FC0028DAD041
:1090A0000135D3E753450BD1009908234A46891B64
:1090B00020461CF019FC18B9694620461CF0D4FB68
:1090C00069462046FFF74EFF054618B138461AF0AC
:1090D0000FFB8AE7009B63604FEA13484FEA08489A
:1090E000C4F80880D4E9011399420FD3082301AAD8
:1090F00020461CF0ABFB05460028E7D101AB13F876
:10910000012B914533D10135082DF8D163681B0C33
:109110001B046946204600931CF0A6FBA389009916
:109120004A4620461CF0E0FB051ECFDB636876D084
:1091300006EB03084FF6FF79A389CDF800801FFAEC
:1091400088F29B1B9A422ED300236168002B43D0E8
:10915000090C09040091204669461CF085FB009922
:1091600020461CF0E6FB0546002D74D0AEE701A9B1
:1091700020461CF002FC626810B9921B6260B1E7E5
:10918000BDF80850BDF80610E06AC4F8088029440C
:109190001CF0E9FB40449042A060EED1002DECD0E1
:1091A0006FF01C0568E0082303AA414620461CF026
:1091B0004DFB0546002889D103A920461CF0DDFBA4
:1091C00030B1BDF80C304B4502D1BDF810300BB1B9
:1091D000B044B1E70123B8E720461CF0AAFB0546DE
:1091E00000287FF473AF6368264AA18913400B44BB
:1091F000A3EB460363601340A36020461CF0A1FC70
:10920000B1E75B1A4A4620461CF06EFB051EFFF6CE
:109210005DAF08D0E26AA36812681344A360D4E982
:1092200001318B42EDD86168A38901EB46029A4275
:109230009AD1DFF85080A26801EA08039A4293D0DD
:1092400020461CF076FB054600287FF43FAF63689C
:1092500003EA0803A360A389A288A3EB46039A420A
:1092600006D038461AF044FA012323740025BCE6E0
:1092700020461CF04FFC054638461AF039FA002DFE
:10928000F2D0B2E60000FFFF2DE9F04F1D46037C4F
:1092900089B0044689469046002B00F0BE80C26A21
:1092A000082110461CF05FFB2946824610461CF040
:1092B0005AFBA389A3EB8A039D42074600F2B080C4
:1092C0001DB1B8F1000F00F0AB806368039304AAEE
:1092D00003A92046DDF80CB01CF087FB06460028E9
:1092E00064D1BDF810304B4505D06268039B9A42AB
:1092F000EDD1E5B95AE004A920461CF03EFB002858
:10930000F3D0BDF81200BDF8143075B19D420ED1F6
:109310004FEA1B41090401442B46424620461CF0FB
:10932000B0FA002803DC064640E0002B3ED0002FB8
:1093300040D104F1140301934FF0FF320198DFF89C
:10934000E8B04FF0FF331AF059F9E3899E4261D03B
:10935000D4E90123F9188A422FD3ADF81A3006A8B0
:10936000FF238DF81E30ADF81890ADF81C501CF09E
:10937000B2FAA1682B46424620461CF080FB2946E3
:109380008246E06A1CF0EFFAA2680244A260BAF1D9
:10939000000F07D106A920461CF0ABFB002814BF24
:1093A0008246AA4601981AF0A3F95646304609B0FB
:1093B000BDE8F08F5744BFB2BBE7E06A08211CF05C
:1093C000D2FA4FF6FF73ADF8183000218DF81E3039
:1093D000A389ADF81C10111802EA0B021A44101AE6
:1093E000606006A8ADF81A101CF075FA06A92046B0
:1093F0001CF07FFB211D20461CF036FA636803EA4F
:109400000B03A36020461CF09CFB82460028C9D1B8
:1094100001369AE76FF01B0AC4E76FF00C06C5E748
:109420006FF01506C2E700BF0000FFFF014B0360AD
:1094300000207047F0C7040070B5114B1C680D4642
:10944000DCB1104B196800238B4202DB6FF0010086
:1094500070BD224612F8106B864202D001331446CA
:10946000F2E7E06810B96FF01200F1E721F052FE68
:109470000028F8D02C600020EAE76FF00C00E7E746
:1094800084030020F0C7040070B588B005460C4680
:10949000C0B269461646FFF7CFFF00281BDB0098D5
:1094A000C8B143680293836822680195CDE9033609
:1094B0000023CDE906230593C5681CF07AFC6DB145
:1094C0002846084901AA21F070FA079808B9059BB7
:1094D000236008B070BD6FF01500FAE76FF012005E
:1094E000F7E700BFB55D0400F0B40C4B0C4E5F6AAB
:1094F0000C4BB34203D36FF08500F0BC70475D683E
:10950000BD4209D31C693CB195F802C00579AC4550
:1095100002D12346F0BC18472433EAE7D01E0020CE
:109520006D0F00206D0F00202DE9F047134CDFF880
:109530005080DFF8509005460E461746444503D349
:109540006FF08500BDE8F0876268D9F824309A4250
:1095500012D3A36983B190782979884205D13A461C
:1095600031462846BDE8F04718475279012A03D111
:109570003A463146284698472434DFE76D0F0020ED
:109580006D0F0020D01E00202DE9F0410B4CDFF8BC
:10959000308005460E461746444502D36FF08500DD
:1095A00009E063690BB92434F6E73A4631462846A8
:1095B00098470028F7D1BDE8F08100BF6D0F00206B
:1095C0006D0F002010B5044621F0AFF810F1780FB0
:1095D00000D050B9054A20461CF00EFCD2F8C43029
:1095E00023EA0003C2F8C430002010BDD01E0020C2
:1095F000024B00221A605A60704700BF8B1F002088
:1096000070B50B4B0B4CA34201D3002070BD196AFF
:109610001E7F00220439D5B2AE4201D82433F2E7CE
:10962000013211F832508542F5D10120EEE700BF3A
:109630006D0F00206D0F002008B509480378C3F3B3
:1096400041130A3350F823303BB100F1080200F116
:1096500010019847C043C00F08BD1846FCE700BF83
:10966000D01E002004282DE9F14FDFF8A090044619
:109670000F4616D001282DD1DFF88C8098F8B9302C
:1096800043B300F065FD1F4D4D4520D2D5F820B005
:109690004FF0000A2B7F5FFA8AF6B34204D82435D4
:1096A000F2E7FFF7A5FFE7E70BEBC6060AF1010AB1
:1096B000307921F03AF8024630791CF09DFBD8F859
:1096C000C430002A23EA0003C8F8C430E2DA0023D9
:1096D00088F8B9300B4D4D4508D30B4B1B6A6BB165
:1096E0003946204601B0BDE8F04F1847EB681BB182
:1096F0003A462146284698472435ECE701B0BDE8B4
:10970000F08F00BF6D0F0020D01E00206D0F0020D5
:1097100073B5C4B263060D468DF8074007D02046E6
:10972000FFF76EFF78B10D4B93F8BA0058B10B4EAE
:10973000204655B116F0EEF8F3691BB10DF10701A3
:1097400008209847012002B070BD16F00BF9F369AC
:10975000002BF7D00DF107010920F2E7D01E002001
:1097600073B586788DF80060037942791C4C43EA22
:109770000223ADF80230C378304603F003038DF8BE
:1097800004301CF039FBD4F8C430184205460BD025
:10979000304600F0BFFC3046FFF714FF21F07AFDA1
:1097A00010B996201AF094FC684616F08FF810F164
:1097B000780F03D010B1002002B070BD9DF80000FA
:1097C00016F00CF910F1780F01D00028F3D1D4F87D
:1097D000C43001202B4384F8B900C4F8C430EBE74F
:1097E000D01E00202DE9F047A34EB36904460F4672
:1097F0001546FBB9237803F01F03012B00F09D8071
:10980000022B00F0048133BB94F900002A686178D0
:10981000002834DA062912D008292BD0D9B901231F
:109820001370517096F8C3305B0043F0010313705E
:1098300002232AE198470028DCD100200DE062884D
:10984000100A011F0129844605D9072803D8716A27
:10985000D2B20C781CB96FF01500BDE8F0874E78D5
:10986000664503D19A4200F00B8101332144F0E7B1
:109870000B780AE196F8BA301370012305E101393B
:109880000829E8D801A353F821F000BF2599020068
:10989000579802003399020057980200B1980200CD
:1098A000579802005798020057980200BD9802008E
:1098B000A07815F0F9FF0028BFD0CCE76388756A5F
:1098C00063BBFFF795FE638886F8BA30F369002B17
:1098D000B3D06A4903209847AFE76B78042B10D0C8
:1098E000052B11D0022B04D16F796388BB4208BFCE
:1098F00001202B781D442B78002BEED10028AAD014
:10990000DFE795F80380F4E76388BB42F1D1B8F153
:10991000000FEED12846FFF723FFEAE7FF270020DC
:10992000B846E8E76388012B95D1002386F8C33059
:1099300083E76388012B8ED1F8E796F8BA30D5F823
:1099400000C0002B87D0756AA38894F804E02A46EB
:10995000107800283FF47FAF5178022904D192F8A3
:109960000480F04500F293800244F1E78CF8002077
:109970008CF80120396060E7154494E00B2A7FF4ED
:109980006AAF00274FF0FF08C146BA4606E06B7881
:10999000042B0FD0052B21D02B781D442B78002BC6
:1099A000F5D1F36913B1514607209847002F7FF492
:1099B00044AF50E795F80280A38895F80390984546
:1099C000EAD163889945E7D1B8F1070F1CD806EBB7
:1099D0000803AA4683F8BB900127DDE7A388434527
:1099E000DAD1A3784B450AD0AF78384600F092FB25
:1099F0003846FFF7E7FDB0FA80F77F09CCE7284645
:109A0000FFF7AEFE0746C7E7AA460027C4E794F96A
:109A100000206378002A18DA002B7FF41CAF247929
:109A20002D6863060AD02046FFF7EAFD00283FF4C0
:109A300012AF96F8BA30002B3FF40DAF29462046FE
:109A400015F0B0FF00236B70F2E6012B08D0032B5A
:109A50007FF401AF6388002B7FF4FDAE012103E0AA
:109A6000618800297FF4F7AEA088FFF751FE002837
:109A70007FF4E3AEEFE600BFD01E00208A1F002077
:109A8000022829607FF4F4AE4B883B60D5E694F958
:109A9000000062780028BFF671AF002A3FF466AF7D
:109AA0000A2A7FF4D8AE2A78002A3FF4D4AE697827
:109AB00004297FF461AFA9788B427FF45DAF072B57
:109AC00096BF9B19002393F8BB308CF80030D4E686
:109AD00013B5164C237DF3B9E268A168019201AB7E
:109AE00080201CF097F9019AA3681344A360E368EF
:109AF0009B1AE3606BB962B12369E2889A4208DD80
:109B000094F8C82093FBF2F102FB11330BB9012347
:109B1000237502B010BD00231A4619468020237514
:109B200002B0BDE8104015F083BF00BFD01E00207A
:109B300030B585B0002302460D460193002858D168
:109B4000002935D108220B460DEB020120F006FE5C
:109B5000002804DA802015F0DDFE05B030BD2A4C67
:109B6000029A2260039A626004F13802A2609DF9B1
:109B70000820BDF80E302575002AC4E903550ADB1C
:109B8000802B04D9802015F0C5FE0020E3E713B137
:109B9000C4E90333E1E7FFF74FFD0028DAD0E2889C
:109BA00023699A42D4BFE260E360FFF791FFD4E7F4
:109BB000154CD4E90215002D01AB04DC20F0CEFDDC
:109BC0000028CADAC6E72A4620F0C8FD0028D9DBFB
:109BD000019AA3681344A360E3689B1AE360002B17
:109BE000BBD104F13803A360FFF726FD0028DCD1C8
:109BF000B0E78028B1D1044BDA68002AD5D11B7DAB
:109C0000002BD2D1A9E700BFD01E0020054B064A89
:109C10009A62064ADA62064A1A63064A58629A61EA
:109C200000207047D01E0020E5970200E994020052
:109C3000899502002995020010B5084B93F8B840A9
:109C400034B900F0E3F830B1FFF7E0FF204610BD73
:109C50006FF07700FBE74FF0FF30F8E7D01E0020F1
:109C60002DE9F341414D04466F6A41484FF0FF3200
:109C70004FF0FF3319F0C2FC95F8B860002E6ED19A
:109C80003C482C62E86115F0EDFF15F0DBFD041E89
:109C900049DB00F081FA041E45DB7B78012B61D1A2
:109CA000FB79002B5ED0684685F8C830ADF80230ED
:109CB0008DF804608DF8006015F008FE041E32DB9C
:109CC000802768468DF8007015F000FE041E2ADB20
:109CD0002949304615F0B2FF041E24DB26493846D8
:109CE00015F0ACFF041E1EDB244CDFF894804445C5
:109CF00020D3002015F072FE041E14DBD5F8C4300A
:109D0000802043F00103C5F8C43015F067FE041E3F
:109D100009DBD5F8C43043F48033C5F8C4300123DF
:109D200085F8B8300024124819F0E2FC204602B051
:109D3000BDE8F081276A0026227FF3B29A4201D85B
:109D40002434D4E707EBC30257F83310107915F029
:109D500075FF01360028EFD04FF0FF34E3E76FF0D6
:109D60007704E0E76FF01504DDE700BFD01E0020A8
:109D7000040D002065960200319B02006D0F00204B
:109D80006D0F002030B51F4B8BB005AA03F11005F5
:109D900018685968144603C40833AB422246F7D109
:109DA0001B7823701022002101A821F068FF1222E5
:109DB0000021154821F063FF102101A820F076FE54
:109DC00000281BDD0828B8BF0820093801AB0E4960
:109DD0001A18002012F8013F0AAC04EB131403F028
:109DE0000F0328336B44013014F8144C13F8143C5F
:109DF0000C7008284B7001F10201EBD102480BB046
:109E000030BD00BFF1E50400CF4400202DE9F04F44
:109E1000704C87B04FF0000B00264FF0011AB0468F
:109E20003546B14623782BB96B4B02349C42F3D1B3
:109E3000684833E06378052B1BD8DFE803F0900314
:109E4000C8901D3B402304A88DF810B0ADF8123027
:109E50008DF814B020F054FC40B1082304A8ADF8EC
:109E6000123020F04DFC08B1ADF812B0BDF8123040
:109E7000E37123781C44D5E7E378002BF9D1A3786C
:109E80007BB108F101085FFA88F8F2E76B689C4241
:109E900009D02435514B9D42F8D3002007B0BDE8CE
:109EA000F08F4F4DF6E7AB68002BEAD041462046D5
:109EB0009847E6E7002DF0D000222B7F9A42ECD2A3
:109EC000296AA07801EBC2010B79984201D00132D6
:109ED000F3E70127E07800F003008DF81400207903
:109EE00094F805C040EA0C20ADF8120094F9020085
:109EF0000028FBB228DA07F110004FF0010C0CFA31
:109F000000F010EA0A0F26D143F080008DF810000F
:109F100004A8CDE90213019220F0F2FBDDE9012152
:109F2000039BC0B99DF81020A27012F0800F18BFDB
:109F300010330A7118BFDBB24FF0010214BF9A4010
:109F4000BA404AEA020A94E70120B84010EA0A0F30
:109F500001D11846DAE70137102FBBD1B7E7032E3E
:109F60001DD1FFF70FFF074668B1FCF745FA10282F
:109F700009D13846A31C07F1100250F8041B43F81E
:109F8000041B9042F9D123786FF00201E218091BFB
:109F900004EB5303D14213D50136F6B269E7002E24
:109FA000F1D1B9F1000F3FF478AFA4EB090389F8C0
:109FB0000230C3F3072389F8033089F80480EBE704
:109FC00002F801BC13F8010902F8020DE2E7A1460C
:109FD0004FE700BF100F00206D0F00206D0F002015
:109FE0006D0F002010B5094B00211A461C788442E1
:109FF00005D15C681CB1482303FB012010BD013171
:10A00000042903F14803F1D10020F7E79C1F002049
:10A010002DE9F34150F8303C10F8346C103304460D
:10A0200010D1036950F8282C990739D5EAB913F0F3
:10A03000040304D11A46194630461BF0EBFE0023F8
:10A0400044F8303C54F8303C10330BD054E90975D7
:10A0500054F81C8C21F01EF900284CD02C482146C5
:10A0600021F0A5FA02B0BDE8F08150F82C1C01AB3C
:10A0700030461BF0CFFE10B16FF01503E0E7019AF8
:10A0800054F82C3C134444F82C3C54F8283C9B1ABC
:10A0900044F8283C54F8243C134444F8243CD1E7C9
:10A0A00050F82C1C01AB304615F03EFD0028E3D1E2
:10A0B000019D54F82C3C2B4444F82C3C54F8283C8B
:10A0C0005B1B44F8283C54F8243C2B4444F8243CC3
:10A0D000002DB4D0304615F0CBFDB5FBF0F303FBFB
:10A0E0001055002DABD154F8283C002BA7D030469A
:10A0F00015F062FDA6E744F8200CA4F1180019F051
:10A1000067FB002DAED0424639463046A847A9E746
:10A11000201D002010B54FF02003EFF3118483F3CE
:10A120001288BFF36F8FFFF75DFF50B143681033A4
:10A1300007D16FF08B03436000F13401034821F035
:10A1400036FA84F31188BFF36F8F10BD201D0020F5
:10A1500070B50F4C04254FF02003EFF3118683F305
:10A160001288BFF36F8F6368103307D16FF08B03D2
:10A170000848636004F1340121F019FA86F311886C
:10A18000BFF36F8F013D04F14804E4D170BD00BFFF
:10A190009C1F0020201D002070B50A4C0A4E00258F
:10A1A0003146204621F0D6F90122A4F118001146CB
:10A1B000013521F04CF9042D04F14804F0D10020C0
:10A1C00070BD00BFD01F002011A002001FB50724E2
:10A1D0000294044C0194BDF8184000941FF092FAC8
:10A1E00004B010BDE50B002010B5084C86B02478F3
:10A1F0008DF81740012402940DF117040194BDF865
:10A20000204000941FF07EFA06B010BDEC0B002039
:10A21000014B1878704700BFEC0B002000B589B0E7
:10A2200064288DF8070019D80E4B182218700021E9
:10A2300002A821F024FD0C4B03930DF107030493B6
:10A2400002A901230020ADF8143005F017FB10F12E
:10A25000800F08BF002009B05DF804FB6FF0150007
:10A26000F9E700BFEC0B0020D4C804002DE9F04151
:10A270000F4B1C6805460E461746ACB14FF0FF3237
:10A280004FF0FF330B4819F0B9F963683246D3F841
:10A29000088029463B462046C0470446054819F039
:10A2A00027FA2046BDE8F0816FF00104F9E700BF0E
:10A2B000BC200020F00C002000230360044B5A68EF
:10A2C00012B9C3E90000704710605860704700BFC2
:10A2D000C0200020014B1860704700BFBC20002048
:10A2E00030B585B000230546CDE9023301904FF02B
:10A2F000FF330C484FF0FF3219F080F90A4B1C680D
:10A300004CB9284600F0CEF80446064819F0F0F99A
:10A31000204605B030BD636820461B6801A99847F8
:10A320002468EDE7F00C0020C02000201FB5CDE927
:10A33000010103924FF0FF330A484FF0FF3219F04A
:10A340005DF9094B1C682CB9064819F0D1F9204673
:10A3500004B010BD636820461B6801A998472468B3
:10A36000F1E700BFF00C0020C0200020024B0022CB
:10A37000C3E90022704700BFC0200020024B00222A
:10A38000C3E90022FFF7F2BFC820002070B51B4CC4
:10A390001B4E0546B44212D31A4E1B484FF0FF32F3
:10A3A0004FF0FF3319F02AF934687CB1286854F86B
:10A3B000141C143CFCF70EF8C8B16469F5E7216879
:10A3C0002868FCF707F8A8B11434E3E700226A61B3
:10A3D000726805F114033AB9C6E9003300240A484B
:10A3E00019F086F9204670BD13607360F6E76FF0D0
:10A3F0001004F4E76FF01004F4E700BF8CC404000D
:10A400002CC50400C8200020F00C00202DE9F743E3
:10A4100007460C4609B100230B601F4DDFF8809002
:10A4200000264D450FD31D4B1D6885B355F8148C80
:10A4300001AA41463846143D1BF028FD10B3D6B999
:10A4400014BB2E461EE0D5F8008001AA41463846CE
:10A450001BF01CFD50B116B954B92E4606E0316808
:10A46000002240461BF012FD0028F5D11435D8E734
:10A47000019B2360F1E73168002240461BF006FD96
:10A480000028DDD16D69D0E7019B2360D9E7304614
:10A4900003B0BDE8F08300BF8CC40400C8200020D6
:10A4A0002CC50400F8B5184C184F06460025BC42D0
:10A4B00008D3174B1C682CB3143CB6B9E368E3B956
:10A4C0006469F8E72EB9E3685BB928461434054699
:10A4D000EDE72068002231461BF0D8FC0028F2D1BD
:10A4E000F3E79847002DF0D1F0E7206800223146CD
:10A4F0001BF0CCFC0028E1D1E2E79847002D08BF13
:10A500000546DDE72846F8BD8CC404002CC50400D0
:10A51000C820002038B50C4D0C484FF0FF334FF0E9
:10A52000FF3219F06BF82B783BB9FFF727FF00F0EB
:10A530006DF8044610B901232B700024034819F06C
:10A54000D7F8204638BD00BFE1440020F00C0020C1
:10A550002DE9F047048FDFF8B0A0013498B08046B1
:10A560008946A4B200F10806651EADB2B5F5004FEC
:10A5700047D04A2305AA294630461BF013FC04F5B0
:10A580007F543F34A4B20746214601230DF10B024C
:10A5900030461BF007FC002F014603DC002803DCDB
:10A5A0002C46E1E7002816DCB8F83830AB4209D178
:10A5B00042466B1E22F8383F4FF4004102233046DA
:10A5C000FEF762FE294630461BF088FB21463046E6
:10A5D0001BF084FBE4E707F160030DEB03070023A6
:10A5E00007F84C3C5246CDF8009003AB05A8039603
:10A5F000ADF810401BF080FC0028D1D018B0BDE8A9
:10A60000F0870020FAE700BF675F04007FB50123F1
:10A61000694602200193FEF70FFF044660BB02AAC1
:10A6200001A90220FEF730FF044610B110F10C0F13
:10A6300022D10399B1F5803F23D2009A0023946878
:10A640001846084484421AD30133082BF9D10E4D21
:10A65000A982EB825368AB602846D368EB631BF09A
:10A660001CFD044640B9094E6E602846FFF724FEE3
:10A6700028466E60FFF72EFE204604B070BD9BB2E8
:10A68000E5E76FF02004F7E7D0200020C0030020AA
:10A69000014B1868704700BFD4030020F0B50822B2
:10A6A00089B01BF0D2FECB6A03930B6B04934B6B08
:10A6B00005938B6B0693CB6B079313466A460C4648
:10A6C0000646002711461046CDE9017700971BF09A
:10A6D000CBFD3146054630461BF0C6FD216B03918C
:10A6E000616B0491A16B0591E16B0544CDE90617FF
:10A6F000104611461BF0B8FD3146054430461BF0AC
:10A70000B3FD0544206A0090606A0190A06A02903F
:10A71000A06B0690E06B07903046CDE90477039775
:10A720001BF0A2FD0544606A0090A06A0190E06AF7
:10A730000290A06BD4F834C00490E06BCDF80CC04C
:10A74000CDE9050C206A079030461BF08DFD0544CD
:10A75000E06A0090206B0190606B0290206A069086
:10A76000A06A07903046CDE9047703971BF0A0FE5E
:10A77000236B0093636B0193A36B0293E36B0393CF
:10A78000636A0693E36A07932D1A082330461BF089
:10A790008FFE636B0093A36B0193E36B0293236AB9
:10A7A0000393636A0493A36ACDE90537236B079388
:10A7B0002D1A082330461BF07BFEA36B0093E36B3E
:10A7C000CDE90137636A0393A36A0493E36A0593AF
:10A7D000636B07932D1A082330461BF069FE2D1A70
:10A7E00010D40D4C35B90822314620461BF039FEF5
:10A7F00001280FD008232246314630461BF058FE70
:10A800002D1AEFE7044A0823314630461BF02CFD91
:10A810002D18F8D409B0F0BD28C904000449431E1E
:10A820000F3013F8012F8A5C1A708342F9D17047F8
:10A830000EE60400F0B5264E07460C460FCE8DB04E
:10A8400001AD0FC50FCE0FC596E8070085E80700DC
:10A850003846002F38D0002C38D0381F2146024609
:10A8600010344B780D781B0443EA0563CD782B43F5
:10A870008D78043143EA05238C4242F8043FF0D13D
:10A88000144C04218A07036916D1C3F30742A55C5F
:10A890001A0EA25C42EA0562C3F30725DBB2655DCE
:10A8A000E35C42EA054242EA032221F0030330332B
:10A8B0006B4453F82C3C534050F8042F0131534063
:10A8C0002C290361DED101200DB0F0BD2046FBE74D
:10A8D00054C504000EE6040030BFFFF7FDBF00BF03
:10A8E000114B124A2DE9F041D518DFF84C80013D9B
:10A8F000B5FBF3F55D430E4B08EB0304013CB4FBE1
:10A90000F3F403FB04540E1B07460A49304621F0BA
:10A91000A8F9701942460021083E21F0B0F97E677F
:10A9200004F10800BDE8F081010000000000000013
:10A930000400000034C5040008000000044B9968BE
:10A940009869884203D003494FF080520A607047EB
:10A950001044002004ED00E0134B9A6A12F0007FCF
:10A960009A6A14BF1E201D2012F0807F9A6A18BFB9
:10A970001F2012F4002F9A6A18BF212012F4802F92
:10A980009A6A18BF222012F4003F9A6A18BF232047
:10A9900012F4803F9A6A6FEA02426FEA12429A62A8
:10A9A00018BF2420704700BF00ED00E010B5194B20
:10A9B0000246986A9C6A10F4805F14BF1720162024
:10A9C00014F4006F9C6A18BF1820A40509D5986B71
:10A9D000986A000404D51AB19A6A22F400429A6275
:10A9E00019200C4B9A6A12F4806F9A6A18BF1A20C9
:10A9F000D2050CD49B6A13F4005F18BF1C20054AD3
:10AA0000936A43F47F43936200230B7010BD1B20B5
:10AA1000F5E700BF00ED00E010B51C4B0246986A58
:10AA20009C6A10F0100F14BF1120102014F0080FB2
:10AA30009C6A18BF1220A40709D5586B986A0006B3
:10AA400004D51AB19A6A22F080029A6213200F4B41
:10AA50009A6A12F0010F9A6A18BF142012F0200FA0
:10AA60009A6A18BF1520D40658BF9B6A074B9A6A8A
:10AA7000920642BF5A6A22F400525A629A6A42F01F
:10AA8000FF029A6200230B7010BD00BF00ED00E0D2
:10AA900070B5444B5B689CB00646C3F308030025C1
:10AAA00085F31188BFF36F8F02F07F40B0F17F4FC5
:10AAB00011D102F00C0008280DD010074CBF0E4633
:10AAC00001250022033B8DF80720032B05D8DFE882
:10AAD00003F01E5C60592E46F3E700249DF8073012
:10AAE0009BB96822314602A821F0BBF8099B002DD2
:10AAF00053D0C3F3080222B96FEA53236FEA43230A
:10AB0000099302A920461CF0FAFB1CB070BD254B2E
:10AB1000DA6A9107E1D4DA6A002ADEDBDA6A5200E7
:10AB2000DBD55A69B16942F480725A61BFF34F8F25
:10AB3000BFF36F8F5A6931F8021C22F480725A6198
:10AB4000BFF34F8FBFF36F8F4DF60272914209D062
:10AB50009A6AD2B242B10DF107010120FFF75CFF02
:10AB60000446BBE73468B9E79A6A12F47F4F05D010
:10AB70000DF107010120FFF719FFF1E79B6AB3F51B
:10AB8000803FAAD3FFF7E8FEEAE70DF107010020B6
:10AB9000E4E70DF107010020EDE723F4FF7323F054
:10ABA0000103ADE700ED00E0024A536943F01003F2
:10ABB0005361704700ED00E0EFF30880EFF3098187
:10ABC00001B57246FFF764FF01BD00BF04480023D2
:10ABD0002021C2180133302B82F80013F9D17047BD
:10ABE00000E100E0FEF7BCF9202080F3118808485E
:10ABF0004FF40061401880F30988EFF314800221BC
:10AC0000084380F31488BFF36F8F00F0D5F800007D
:10AC1000B8660020084B9B6883420BD1EFF3058395
:10AC200043B1064B5A6842F080525A605A6A22F485
:10AC300000425A6219F06CBA1044002000ED00E0A6
:10AC4000094A0A4993680968D967094998674B68AE
:10AC500043F080534B60002383F31188BFF36F8F61
:10AC60009368D86F704700BF10440020A8E104002B
:10AC700000ED00E021498A6882F8C1E04FF0300021
:10AC80001044EFF3098C80E8F01F1EF0100F03D181
:10AC900002F1800080EC108A202080F31288BFF33C
:10ACA0006F8F174F4FF000668A698A603E604FF0E1
:10ACB000740414192068134C206092F9C1E0906F5D
:10ACC0000023936780F311881EF0100F03D0002338
:10ACD000E1EE103A03E002F1800090EC108AEFF30D
:10ACE000148323F0040383F31488BFF36F8F02F1FE
:10ACF000300090E8F01F8CF3098870471044002062
:10AD000004ED00E0102100201EF0040F0CBFEFF353
:10AD10000880EFF30980816911F8021C0229FFD035
:10AD200001B51CF0EEFA01BD40B2002807DB044A71
:10AD30004109012300F01F00834042F82130704791
:10AD400000E100E040B200280CDB4309064900F0B6
:10AD50001F0020330122824041F82320BFF34F8F90
:10AD6000BFF36F8F704700BF00E100E0054B420961
:10AD700000F01F0053F82220012303FA00F01040D6
:10AD8000704700BF00E100E040B20028A8BF00F11A
:10AD9000604001F10101B8BF064B4FEA4111ACBF61
:10ADA00000F5614000F00F00C9B2B4BF195480F83B
:10ADB0000013704714ED00E0144A08B5144B22F05C
:10ADC0007F029A60BFF34F8FBFF36F8FD3F8882055
:10ADD00022F47002C3F88820D3F8882042F4A0023D
:10ADE000C3F888204FF04042C3F83422BFF34F8F9E
:10ADF000BFF36F8F0023E1EE103A18F08BF919F0D2
:10AE0000FDF9FFF7E3FE18F0D3F900BF0060020080
:10AE100000ED00E042F8203C009B42F81C3C019B06
:10AE200042F8183C0A49029B42F8143C4FF08073E8
:10AE300042F8043C21F00101002342F8081C203AAA
:10AE400083674FF47D430265C0F8C030704700BF90
:10AE5000E18C0200114B9B6883421BD1EFF305800C
:10AE6000C0B94FF02002EFF3118182F31288BFF3D3
:10AE70006F8F1A7B22F002021A73EFF3148323F010
:10AE8000040383F31488BFF36F8F81F31188BFF33A
:10AE90006F8F70476FF01500704700BF104400209F
:10AEA0000023E1EE103AEFF3148323F0040383F35D
:10AEB0001488BFF36F8FBFF36F8F094B9860094BF6
:10AEC000406F1860104681F30988002163B681F352
:10AED0001188BFF36F8F00220023FDF701FF00BF31
:10AEE0001044002010210020014910220A60704700
:10AEF00010ED00E072B6404080F31188BFF36F8F11
:10AF0000BFF34F8F30BF62B6BFF36F8F704700BF84
:10AF100072B6494081F31188BFF34F8F20BF80F391
:10AF2000118862B6704700BF01B5EFF30580A0F14C
:10AF300010004FEAC0000449014409C99847BDE820
:10AF400001400249084700008CC204003DA90200EC
:10AF5000024B034A0348012100F030B800000420EE
:10AF600000000020D4C90400084AC2F898000B6809
:10AF700023F01F03034343F01003C2F89C308B6897
:10AF800043F00103C2F8A030704700BF00ED00E0BD
:10AF9000044B0522C3F89420BFF34F8FBFF36F8F8C
:10AFA000704700BF00ED00E0BFF35F8F024B00224F
:10AFB000C3F89420704700BF00ED00E010B5034CCB
:10AFC000012322781CF0BCF9207010BDE24400205F
:10AFD000F0B5454D2C68082C85B000F28280FFF753
:10AFE000E3FF00200C2684420DD1404D404F2C70D1
:10AFF0006846FEF71BFA00240646A6420AD1FFF770
:10B00000C7FF00201CE0696806FB0011FFF7ACFFDA
:10B010000130E8E7009800EB04114FEA041CCB680C
:10B020003B40B3F5000F4AD00CD8B3F5001F30D029
:10B03000B3F5800F38D0B3F5801F12D06FF0150034
:10B0400005B0F0BDB3F1807F42D0B3F1007FF5D100
:10B0500050F80C3088684A681CF062F940F480208F
:10B0600009E050F80C3088684A681CF059F940F043
:10B07000885040F43020039028780728CDE9012338
:10B08000DCD801A9FFF770FF2B7801332B70013456
:10B09000B3E750F80C3088684A681CF041F940F07A
:10B0A000885040F40020E6E750F80C3088684A6881
:10B0B0001CF036F940F0007040F40030DBE750F847
:10B0C0000C3088684A681CF02BF940F08270D2E797
:10B0D00050F80C3088684A681CF022F940F08870FB
:10B0E000C9E74FF0FF30ABE7E0C90400E2440020BD
:10B0F0000000F0FF08B504481AF07DF8404080F3E6
:10B1000011884FF0020002DF0EE7040008B506497F
:10B11000064821F00701C1F1005202F580221AF021
:10B1200005FA002008BD00BF63850020142100201F
:10B13000044A0123C2F840354FF080420020C2F893
:10B140007835704700E001404FF08043C0B2C3F84B
:10B150001C05BFF34F8F0549054BCA6802F4E06236
:10B160001343CB60BFF34F8F00BFFDE700ED00E05E
:10B170000400FA0520B1034B800143F00103184796
:10B18000704700BFD0C5040008B504481FF0C2FFD7
:10B1900000280CBF6FF01200002008BDB0C10400F1
:10B1A000F8B5594EBFF35B8F3468BFF35B8F14F073
:10B1B000010450D0554F564C564D57483A462146FB
:10B1C0001AF0ABFFE0B320222946204620F0F0FE23
:10B1D0000028F2D000274FF0FF324FF0FF3301205C
:10B1E00000F04AFB00F10C050221044628461FF03E
:10B1F0002DFA3E23037042234370012128461FF09D
:10B2000025FA08230370412128461FF01FFA05463E
:10B2100000F8017BB7B14022002120F030FDBFF3E0
:10B220005B8F56E8003F23F0010346E80032002A16
:10B23000F7D1BFF35B8F2046BDE8F84000F064BF54
:10B240001F27C8E734491CF015F9203105F121000A
:10B250001CF010F9E3E7BFF35B8F3368BFF35B8F3C
:10B260009B0750D529492C481BF014FE002811DB00
:10B27000BFF35B8F264933682648BFF35B8F13F01B
:10B28000040F01F12002214B18BF014610461AF0AD
:10B2900091FF04464FF0FF324FF0FF33012000F0E2
:10B2A000EBFA00F10C070221054638461FF0CEF9F3
:10B2B0003E23037022234370012138461FF0C6F954
:10B2C00009230370212138461FF0C0F903460130DD
:10B2D0009CB91F221A70FF21202220F0D0FCBFF35E
:10B2E0005B8F56E8003F23F0020346E80032002A55
:10B2F000F7D1BFF35B8F28469EE7002206491A70FC
:10B300001CF0B8F8EBE7F8BD2021002000CA0400CB
:10B31000E344002055E704000345002070B5214CAC
:10B32000BFF35B8F2368BFF35B8FDA0706460D46DA
:10B3300001D50C2070BD012931D8BFF35B8F54E8D3
:10B34000003F43F0020244E800210029F7D1BFF397
:10B350005B8F9B07EDD4144831461CF08BF81348E3
:10B3600006F120011CF086F8BFF35B8F75B154E83D
:10B37000003F43F0040344E80032002AF7D1BFF352
:10B380005B8F0B4800F036FA0020D3E754E8003F0B
:10B3900023F0040344E80032002AF0D0F6E712203C
:10B3A000C8E700BF202100200345002023450020DE
:10B3B000D803002070B5067E044676B9C3681D88A0
:10B3C00042F22602954245D00FD842F20102954240
:10B3D0004FD042F225039D4213D02A4BD3F85C3163
:10B3E00020465B69BDE87040184742F25E039D420B
:10B3F000F3D103210C301FF048F9E06890F84010B9
:10B400002EE003210C301FF040F9204613F07AFEA5
:10B41000BFF35B8F1C4B1A68BFF35B8F920707D596
:10B420000C26314642F225001CF000F8002070BDC9
:10B43000BFF35B8F53E8002F42F0010143E8001097
:10B440000028F7D1BFF35B8FD307E9D40F4800F092
:10B45000D1F9E6E703210C301FF017F9E068314617
:10B46000FFF75CFF0646204613F04CFE31462846A7
:10B47000DAE7DA7802F07F02DA701A7922F0010254
:10B480001A71AAE70000002020210020D803002024
:10B490002DE9F341254CBFF35B8F1F462368BFF3B3
:10B4A0005B8F1646DA0705462BD520B96FF00100F1
:10B4B00002B0BDE8F08101A91AF00CFD1C498046DC
:10B4C0000246284620F084FDE8B9BFF35B8F23686D
:10B4D000BFF35B8FC3F3C0081B0712D4A4F1D405DC
:10B4E000072229463846B047062895BF44F8D48C31
:10B4F0000723C5F80380B0FBF3F094BF85F80780FD
:10B50000E8710020D4E728460A49424620F060FD51
:10B5100005460028CAD1102204F18C013846B047F4
:10B520000028EEDB044484F88C50EAE7D4000020C5
:10B530005AE5040075E704002DE9F04188B09C79D4
:10B54000DDF838805D791E79DF7893F802C093F8D2
:10B5500001E01B78B8F1000F0ED0CDE90638CDE937
:10B5600004CE1346CDE90267CDE90045084A19F03B
:10B57000E9F808B0BDE8F081CDE905E3CDE9037C49
:10B580001346CDE90156034A009419F0DBF8F0E7C1
:10B590007AE704009EE7040070B504468CB01E46AE
:10B5A0001546A2B129B10A4602A8042119F0A8FD46
:10B5B00002A900912B462246242103A8FFF7BCFFD5
:10B5C000109A314603A8FEF751FE0CB070BD034639
:10B5D000044A242103A819F0B5F80028F0DA6FF026
:10B5E0001500F2E7BFE7040007B5064B0648DA7915
:10B5F000C2EBC202009200221146FFF7CDFF03B05A
:10B600005DF804FB000000205AE5040030B5044654
:10B610008DB0154692B129B10A4602A8042119F04D
:10B620006FFD02A900912B462246242103A8FFF7B3
:10B6300083FF03A81AF026FC0DB030BD0346054A6F
:10B64000242103A819F07EF80028F2DA6FF0150023
:10B65000F2E700BFBFE7040007B5009313460A46B0
:10B6600001460348FFF798FF03B05DF804FB00BFF5
:10B6700091E904000A4601460148FFF7C7BF00BF31
:10B6800091E9040007B5009313460A4601460348B2
:10B69000FFF782FF03B05DF804FB00BF8BE90400F5
:10B6A00007B5009313460A4601460348FFF774FFA7
:10B6B00003B05DF804FB00BF7CE9040007B500227D
:10B6C0000346009103481146FFF766FF03B05DF89B
:10B6D00004FB00BF83E9040007B500220346009184
:10B6E00003481146FFF758FF03B05DF804FB00BFA5
:10B6F00075E7040008B5024818F06CF9002008BD91
:10B70000E803002070B51D4CBFF35B8F2368BFF3C7
:10B710005B8F13F0010F254622D094F88C30A4F1F2
:10B72000D40613B9164800F001FEF379D3B1BFF384
:10B730005B8F2368BFF35B8F5A0701D400F07AFD5B
:10B74000BFF35B8F55E8003F23F4803245E80021CA
:10B750000029F7D1BFF35B8FDB0301D5FFF7CAFFE9
:10B76000002009E001F03AF830B9F379002BDED17E
:10B7700001F078F80028DAD070BD00BFD4000020B6
:10B780002BE7040007B5009313460A460146034819
:10B79000FFF702FF03B05DF804FB00BFD0E904002F
:10B7A0000A4601460148FFF731BF00BFD0E9040057
:10B7B00030B50A4D0A4B85B0002428460293039405
:10B7C0001FF006FF02AB0093284606490A234FF4F8
:10B7D000A36218F005F9204605B030BD70110020B5
:10B7E000C8E70400A04B00200146014818F030B91A
:10B7F00070110020014601481FF0D9BE70110020D1
:10B800000378012B30B513D0022B27D07BB9194B0D
:10B810000A4603F1100453F8045B42F8045BA342A8
:10B82000F9D11B78137043884B731B0A8B7330BD9F
:10B83000104B0A4603F1100453F8045B42F8045B12
:10B84000A342F9D11B78137043684B73C3F30722EB
:10B850001B0CCB731B0A8A730B74E8E700F110030F
:10B8600050F8042B41F8042B9842F9D103780B705F
:10B87000DDE700BFD1E7040038B5054605481EF0F6
:10B88000A6FE044620B100210C301EF0DBFE25761A
:10B89000204638BDB80E002070B502460D48BFF3F3
:10B8A0005B8F0B46002150E8004F40E80015002D4B
:10B8B000F9D1BFF35B8F24B9BDE870400120FFF7D9
:10B8C000DBBF012304F10C00237621821EF0BAFEB7
:10B8D000204670BD4001002070B504460F2C0D4677
:10B8E0001046194605D80D2C0DD9BDE87040FFF75C
:10B8F000D3BF132C07D10C481EF069FE044638B99B
:10B900000024204670BD02460B4645B10748F3E7C8
:10B9100000210C301EF096FE01232376F1E7BDE8EE
:10B9200070400120FFF7A8BFE40E0020340E002075
:10B9300038B5C368B3F801401B786BB90F212046B6
:10B9400001F060FE054640B9084B1A8822B96FEA3B
:10B9500004506FEA1050188038BD012101F096FDA7
:10B960002846BDE838401CF0E0BC00BF5044002031
:10B9700010B5084C0146052294F86F0001F0C0FF95
:10B9800038B994F86F000449BDE81040042201F072
:10B99000B7BF10BD000000203BE7040010B5012137
:10B9A00004460C301EF079FE2146034A0078BDE8BB
:10B9B00010400A231BF0D3BE38CB0400F8B507466D
:10B9C000907A0E46144613F0EFFA284B83424BD17F
:10B9D000204613F0F1FA264D0C2303FB0050438858
:10B9E000BB4241D1234FD7F8400120B113F08AFB6D
:10B9F0000023C7F84031204613F0DEFA0C2707FB7E
:10BA0000005043689BB196B9204613F0D5FA07FB66
:10BA1000005001214268D2E90003127A03F01F07A7
:10BA2000B9405B09D2B100EB83001BF0FFFD20465B
:10BA300013F0C2FA0C2707FB00508368A3B120461D
:10BA400013F0BAFA78432E54204613F0B5FA07FBE8
:10BA50000055A868BDE8F84017F0BABEC94300EB2E
:10BA600083001BF093FEE2E7F8BD00BF8C0E0020C0
:10BA7000242100200000002038B5042104460C30A9
:10BA80001EF00BFE4578017840882246FFF796FFAE
:10BA900025B10348BDE8384017F09ABE38BD00BF55
:10BAA0002801002038B5032104460C301EF0F5FDB6
:10BAB000E36805781978B0F801002246FFF77EFFA9
:10BAC00025B10348BDE8384017F082BE38BD00BF3D
:10BAD000280100202DE9F0473C4FDFF80C8107F1E9
